{
  "_format": "hh-sol-artifact-1",
  "contractName": "NFTMarket",
  "sourceName": "contracts/Market.sol",
  "abi": [
    {
      "inputs": [],
      "stateMutability": "nonpayable",
      "type": "constructor"
    },
    {
      "anonymous": false,
      "inputs": [
        {
          "indexed": true,
          "internalType": "uint256",
          "name": "itemId",
          "type": "uint256"
        },
        {
          "indexed": true,
          "internalType": "address",
          "name": "nftContract",
          "type": "address"
        },
        {
          "indexed": true,
          "internalType": "uint256",
          "name": "tokenId",
          "type": "uint256"
        },
        {
          "indexed": false,
          "internalType": "address",
          "name": "seller",
          "type": "address"
        },
        {
          "indexed": false,
          "internalType": "address",
          "name": "owner",
          "type": "address"
        },
        {
          "indexed": false,
          "internalType": "bool",
          "name": "sold",
          "type": "bool"
        }
      ],
      "name": "MarketItemCreated",
      "type": "event"
    },
    {
      "inputs": [
        {
          "internalType": "address",
          "name": "nftContract",
          "type": "address"
        },
        {
          "internalType": "uint256",
          "name": "tokenId",
          "type": "uint256"
        }
      ],
      "name": "createMarketItem",
      "outputs": [],
      "stateMutability": "payable",
      "type": "function"
    },
    {
      "inputs": [
        {
          "internalType": "address",
          "name": "nftContract",
          "type": "address"
        },
        {
          "internalType": "uint256",
          "name": "itemId",
          "type": "uint256"
        }
      ],
      "name": "createMarketSale",
      "outputs": [],
      "stateMutability": "payable",
      "type": "function"
    },
    {
      "inputs": [],
      "name": "fetchItemsCreated",
      "outputs": [
        {
          "components": [
            {
              "internalType": "uint256",
              "name": "itemId",
              "type": "uint256"
            },
            {
              "internalType": "address",
              "name": "nftContract",
              "type": "address"
            },
            {
              "internalType": "uint256",
              "name": "tokenId",
              "type": "uint256"
            },
            {
              "internalType": "address payable",
              "name": "seller",
              "type": "address"
            },
            {
              "internalType": "address payable",
              "name": "owner",
              "type": "address"
            },
            {
              "internalType": "bool",
              "name": "sold",
              "type": "bool"
            }
          ],
          "internalType": "struct NFTMarket.MarketItem[]",
          "name": "",
          "type": "tuple[]"
        }
      ],
      "stateMutability": "view",
      "type": "function"
    },
    {
      "inputs": [],
      "name": "fetchMarketItems",
      "outputs": [
        {
          "components": [
            {
              "internalType": "uint256",
              "name": "itemId",
              "type": "uint256"
            },
            {
              "internalType": "address",
              "name": "nftContract",
              "type": "address"
            },
            {
              "internalType": "uint256",
              "name": "tokenId",
              "type": "uint256"
            },
            {
              "internalType": "address payable",
              "name": "seller",
              "type": "address"
            },
            {
              "internalType": "address payable",
              "name": "owner",
              "type": "address"
            },
            {
              "internalType": "bool",
              "name": "sold",
              "type": "bool"
            }
          ],
          "internalType": "struct NFTMarket.MarketItem[]",
          "name": "",
          "type": "tuple[]"
        }
      ],
      "stateMutability": "view",
      "type": "function"
    },
    {
      "inputs": [],
      "name": "fetchMyNFTs",
      "outputs": [
        {
          "components": [
            {
              "internalType": "uint256",
              "name": "itemId",
              "type": "uint256"
            },
            {
              "internalType": "address",
              "name": "nftContract",
              "type": "address"
            },
            {
              "internalType": "uint256",
              "name": "tokenId",
              "type": "uint256"
            },
            {
              "internalType": "address payable",
              "name": "seller",
              "type": "address"
            },
            {
              "internalType": "address payable",
              "name": "owner",
              "type": "address"
            },
            {
              "internalType": "bool",
              "name": "sold",
              "type": "bool"
            }
          ],
          "internalType": "struct NFTMarket.MarketItem[]",
          "name": "",
          "type": "tuple[]"
        }
      ],
      "stateMutability": "view",
      "type": "function"
    }
  ],
  "bytecode": "0x608060405234801561001057600080fd5b506001600055600380546001600160a01b03191633179055610ae7806100376000396000f3fe60806040526004361061004a5760003560e01c80630f08efe01461004f578063202e37401461007a578063c23b139e1461008f578063dd5f8518146100a4578063f064c32e146100b7575b600080fd5b34801561005b57600080fd5b506100646100cc565b60405161007191906109c7565b60405180910390f35b34801561008657600080fd5b5061006461026c565b6100a261009d366004610991565b61044a565b005b6100a26100b2366004610991565b6105a5565b3480156100c357600080fd5b5061006461077e565b606060006100d960015490565b905060006100e660025490565b6001546100f39190610a69565b90506000808267ffffffffffffffff81111561011f57634e487b7160e01b600052604160045260246000fd5b60405190808252806020026020018201604052801561015857816020015b61014561095c565b81526020019060019003908161013d5790505b50905060005b84811015610263576000600481610176846001610a51565b81526020810191909152604001600020600401546001600160a01b031614156102515760006101a6826001610a51565b600081815260046020818152604092839020835160c0810185528154815260018201546001600160a01b0390811693820193909352600282015494810194909452600381015482166060850152918201549081166080840152600160a01b900460ff16151560a083015285519293509185908790811061023657634e487b7160e01b600052603260045260246000fd5b602090810291909101015261024c600186610a51565b945050505b8061025b81610a80565b91505061015e565b50949350505050565b6060600061027960015490565b905060008060005b838110156102dc573360046000610299846001610a51565b81526020810191909152604001600020600401546001600160a01b031614156102ca576102c7600184610a51565b92505b806102d481610a80565b915050610281565b5060008267ffffffffffffffff81111561030657634e487b7160e01b600052604160045260246000fd5b60405190808252806020026020018201604052801561033f57816020015b61032c61095c565b8152602001906001900390816103245790505b50905060005b8481101561026357336004600061035d846001610a51565b81526020810191909152604001600020600401546001600160a01b0316141561043857600061038d826001610a51565b600081815260046020818152604092839020835160c0810185528154815260018201546001600160a01b0390811693820193909352600282015494810194909452600381015482166060850152918201549081166080840152600160a01b900460ff16151560a083015285519293509185908790811061041d57634e487b7160e01b600052603260045260246000fd5b6020908102919091010152610433600186610a51565b945050505b8061044281610a80565b915050610345565b600260005414156104a25760405162461bcd60e51b815260206004820152601f60248201527f5265656e7472616e637947756172643a207265656e7472616e742063616c6c0060448201526064015b60405180910390fd5b60026000818155828152600460205260408082209283015460039093015490516001600160a01b03909116913480156108fc02929091818181858888f193505050501580156104f5573d6000803e3d6000fd5b506040516323b872dd60e01b8152306004820152336024820152604481018290526001600160a01b038416906323b872dd90606401600060405180830381600087803b15801561054457600080fd5b505af1158015610558573d6000803e3d6000fd5b505050600083815260046020819052604090912001805460ff60a01b1933166001600160a81b031990911617600160a01b1790555061059b600280546001019055565b5050600160005550565b600260005414156105f85760405162461bcd60e51b815260206004820152601f60248201527f5265656e7472616e637947756172643a207265656e7472616e742063616c6c006044820152606401610499565b600260005561060b600180546001019055565b600061061660015490565b6040805160c0810182528281526001600160a01b038681166020808401828152848601898152336060870181815260006080890181815260a08a018281528c8352600497889052918b902099518a55945160018a018054918a166001600160a01b0319928316179055935160028a0155905160038901805491891691909416179092559151958301805491511515600160a01b026001600160a81b031990921696909516959095179490941790925592516323b872dd60e01b81529081019190915230602482015260448101859052919250906323b872dd90606401600060405180830381600087803b15801561070c57600080fd5b505af1158015610720573d6000803e3d6000fd5b5050604080513381526000602082018190528183015290518593506001600160a01b038716925084917f3e2bb8636b8b3895badbf3d8707693bf25ba46ee1e95ac042e5a563e4756df21919081900360600190a45050600160005550565b6060600061078b60015490565b905060008060005b838110156107ee5733600460006107ab846001610a51565b81526020810191909152604001600020600301546001600160a01b031614156107dc576107d9600184610a51565b92505b806107e681610a80565b915050610793565b5060008267ffffffffffffffff81111561081857634e487b7160e01b600052604160045260246000fd5b60405190808252806020026020018201604052801561085157816020015b61083e61095c565b8152602001906001900390816108365790505b50905060005b8481101561026357336004600061086f846001610a51565b81526020810191909152604001600020600301546001600160a01b0316141561094a57600061089f826001610a51565b600081815260046020818152604092839020835160c0810185528154815260018201546001600160a01b0390811693820193909352600282015494810194909452600381015482166060850152918201549081166080840152600160a01b900460ff16151560a083015285519293509185908790811061092f57634e487b7160e01b600052603260045260246000fd5b6020908102919091010152610945600186610a51565b945050505b8061095481610a80565b915050610857565b6040805160c081018252600080825260208201819052918101829052606081018290526080810182905260a081019190915290565b600080604083850312156109a3578182fd5b82356001600160a01b03811681146109b9578283fd5b946020939093013593505050565b602080825282518282018190526000919060409081850190868401855b82811015610a4457815180518552868101516001600160a01b039081168887015286820151878701526060808301518216908701526080808301519091169086015260a09081015115159085015260c090930192908501906001016109e4565b5091979650505050505050565b60008219821115610a6457610a64610a9b565b500190565b600082821015610a7b57610a7b610a9b565b500390565b6000600019821415610a9457610a94610a9b565b5060010190565b634e487b7160e01b600052601160045260246000fdfea26469706673582212201ed7b5aa7bdedcea1a2f71e6ad7dd6b17c100aeb744036a1de3ca5fd545aa8f064736f6c63430008040033",
  "linkReferences": {},
  "deployedLinkReferences": {}
}